:1000000000308A0004280000FF238316900000308F
:100010008A008A280A108A100A1182072834293493
:100020002A342C342D34383439343A343B343C348B
:100030003D341F1300308316910083121F10831666
:100040000108C03981000F308312A0008101813086
:1000500084000008F0390738800064000008F73990
:10006000A019F03920048000900107309900831610
:100070000508850003308312A000A00B3D28190855
:100080008C11831699018312A02828080739A00033
:10009000280CA100A10CA10C1F30A10521082A07E2
:1000A0008400A101A10AA00A5628A10DA00B552881
:1000B000A90803195E28210880046128A1092108E4
:1000C000800508002708A800A901AA0145202708E3
:1000D000A800A9018030AA0045205030A80028308F
:1000E00084000008031982280130A100A001A00BA0
:1000F0007728A10B76284A30A000A00B7D28802805
:10010000800B74282708A8000130A9008030AA00BD
:100110004520A62803081F3983003F30A000213066
:10012000840083138001840AA00B9228A0011F136E
:10013000003083169100073083129900A501192819
:10014000640025080A20A600A7006228851DAE28A5
:10015000A50A25080A3C031CA501B428A508031D0F
:0C016000B3280B30A500A503A028630005
:02400E000C1193
:00000001FF
;PIC16F676
;CRC=C9CE  CREATED="29-Dec-20 02:23"
