:1000000000308A0004280000FF238316900000308F
:100010008A00A1280A108A100A118207283429347C
:100020002A342C342D34383439343A343B343C348B
:100030003D341F1300308316910083121F10831666
:100040000108C03981000F308312A0008101813086
:1000500084000008F0390738800064000008F73990
:10006000A019F03920048000900107309900831610
:100070000508850003308312A000A00B3D28190855
:100080008C11831699018312B6281030B000A0019C
:10009000A301AD0CAC0C031C53282E08A0070318B9
:1000A000A30A2F08A307A30CA00CA20CA10CB00B51
:1000B0004928D0282C308400000803196D2801300D
:1000C000A100A001A00B6228A10B61284A30A0006A
:1000D000A00B68286B28800B5F2808002C080739C4
:1000E000A0002C0CA100A10CA10C1F30A10521081F
:1000F0002E078400A101A10AA00A7F28A10DA00B50
:100100007E28AD0803198728210880048A28A109C0
:100110002108800508002A08AC00AD01AE016E2060
:100120002A08AC00AD018030AE006E202B08AC0078
:100130005A202A08AC000130AD008030AE006E209D
:10014000080003081F3983003F30A00021308400DD
:1001500083138001840AA00BA928A0011F1300307B
:1001600083169100073083129900192883169B018A
:100170009C131C141A088312A600AA012608A900C1
:10018000013083169B009C131C141A088312AB00C9
:100190002A08AD002908AC00AF012B08AE004528A5
:1001A0002208A8002108A7002808A900A90AA90375
:1001B0000319DE28FF30AC005A20D7282708AC00EE
:1001C0005A20851DF328A50125080A3C031CF228A6
:1001D000640025080A20A900AA002608AB008B208D
:1001E000A50AE42802290B30A500A5080319022955
:1001F0006400A50325080A20A900AA002608AB0070
:0A0200008B20F5288A010028630016
:044200002300070090
:02400E000C1193
:00000001FF
;PIC16F676
;CRC=F22C  CREATED="11-Jan-21 15:04"
